:020000040800F2
:10000000C8730020650200086D0200086F02000836
:100010008102000883020008850200080000000039
:10002000000000000000000000000000D9010008EE
:1000300089020008000000000D0200087D18000879
:100040008F0200088F0200088F02000800000000E5
:1000500000000000D17700088F0200088F0200081E
:100060008F020008000000008F0200088F020008C5
:100070008F020008000000008F0200083D630008A6
:100080008F0200088F020008000000008F020008A5
:100090008F020008000000000000000000000000C7
:1000A0000000000000000000000000008F020008B7
:1000B0008F0200088F0200088F0200088F020008DC
:1000C00000F002F800F079F80AA090E8000C8244F1
:1000D0008344AAF10107DA4501D100F06EF8AFF2CE
:1000E000090EBAE80F0013F0010F18BFFB1A43F016
:1000F0000103184730380100503801000A444FF01E
:10010000000C10F8013B13F0070408BF10F8014B76
:100110001D1108BF10F8015B641E05D010F8016BBB
:10012000641E01F8016BF9D113F0080F1EBF10F81F
:10013000014BAD1C0C1B09D16D1E58BF01F801CB42
:10014000FAD505E014F8016B01F8016B6D1EF9D5C5
:100150009142D6D3704700000023002400250026DA
:10016000103A28BF78C1FBD8520728BF30C148BF1A
:100170000B60704766290FF0B78564290DF0C486BF
:1001800075290DF0C18663290EF0F58373290EF0F1
:10019000FA83002070471FB50EF04CFC04000020CD
:1001A00000210FF057F9401C6060002000210FF083
:1001B00067F9E0601FBD10B510BD0EF041FD11469E
:1001C000FFF7E9FF02F02CFD0EF05FFD03B4FFF72F
:1001D000F2FF03BC0EF060FD1A4B19680868B0E826
:1001E000F00F80F309884FF0000080F311884EF083
:1001F0000D0E70470000000003480068006880F39F
:10020000088862B600DF00BF08ED00E0EFF3098068
:100210000C4B1A6820E9F00F106008B54FF0200071
:1002200080F3118802F092F84FF0000080F31188FB
:10023000BDE8084019680868B0E8F00F80F3098845
:10024000704700BF08000020EFF311804FF020013D
:1002500081F31188704780F311887047EFF30580B0
:10026000704700000D4880470D480047FEE71EF02C
:10027000040F0CBFEFF30880EFF3098005F099BF7E
:10028000FEE7FEE7FEE7FEE7FEE7FEE7FEE7FEE746
:1002900004480549054A064B70470000150300084D
:1002A000C1000008C86D0020C8730020C86F00207E
:1002B000C86F002010B51F4BD8681F4C800701D5B0
:1002C000601000E02046D968C90700D04008D9680E
:1002D000490704D55968C1F30321491C4843D9682B
:1002E000164AC1F3012139B1012907D002290DD0E5
:1002F00049F64040106010BD146010BDD968C1F3CC
:100300000311491CB0FBF1F0106010BD4FF4004028
:10031000106010BD07480A49C161C1680021C16071
:10032000426841608268816002690161426941619D
:10033000C0E700000000024000127A000000002028
:1003400010000008002101604160016141614162CB
:1003500003210162704710B54A8802610A894B89FE
:100360000C881A448B8903EB04231A44CB881A4463
:100370000260CA8989881144416010BD00218180D2
:100380000722C28041810181818102224280018055
:100390007047002904D0416841F002014160704774
:1003A00041684FF6FD72114041607047002A03D04A
:1003B00042690A434261704742698A434261704719
:1003C0008069814301D00020704701207047C069D7
:1003D000084201D00120704700207047026A0A439A
:1003E00002627047002A03D0426A0A4342627047A1
:1003F000426AC94389B20A404262704781607047CD
:10040000806880B27047C068084201D00120704700
:100410000020704710B50B4BDA6A0B4CA04205D197
:1004200042F0807020F0FF020A4308E0074CA0422F
:1004300005D142F0007020F47F4040EA0122DA62E8
:1004400010BD0000000002400000044000000A400F
:100450000021C16001614160016081604161816191
:10046000C16170472DE9FF4FD0F804908768D0F83C
:100470000CA0D0F81080D0F814C082690192C26933
:1004800000920022012303254FF001160C885EE044
:100490005FEAC47B56D091F802B029EA03090BFA4F
:1004A00002FB49EA0B0991F808E04FEA420B0EFA09
:1004B0000BFEAF434EEA0707CDF80CB091F80AB037
:1004C0002AEA030A0BFA02FB4AEA0B0A91F803E054
:1004D00002F1100B0EFA0BFECDF808B091F804B043
:1004E00028EA060848EA0E080BFA02FB48EA0B085D
:1004F00091F805E0DDF808B02CEA060C0EFA0BFEC8
:1005000091F806B04CEA0E0C0BFA02FB4CEA0B0C0D
:1005100091F809E0DDF80CB00EFA0BFEDDF804B03E
:100520002BEA050B4EEA0B0ECDF804E0DDF800B027
:1005300091F807E02BEA030B0EFA02FE4BEA0E0BD2
:10054000CDF800B05B00AD007600521C6408002CB2
:100550009ED14749884202D14FF01F0101E04FF080
:10056000000129EA0109C0F8049002D14FF01F01EF
:1005700001E04FF0000127EA0107876002D14FF048
:100580001F0101E04FF000012AEA010AC0F80CA0A7
:1005900002D14FF01F0101E04FF0000128EA0108ED
:1005A000C0F8108002D14FF01F0101E04FF00001B0
:1005B0002CEA010CC0F814C002D14FF01F0101E079
:1005C0004FF00001019A22EA0102826102D14FF04C
:1005D0001F0101E04FF00001009A22EA0102C2610E
:1005E000BDE8FF8F4FF6FF71018000218170C1705F
:1005F000017141718171C1710172417281727047E3
:100600000068084201D00120704700207047006850
:1006100070470368164A904201D11F2200E0002271
:1006200093430B43036070470368114A904201D122
:100630001F2200E000220A4393430360704710B575
:1006400003680B4CA04201D11F2400E00024A34307
:1006500012B10B43036010BD8B43036010BD044A0D
:10066000904201D11F2200E00022914301607047B7
:1006700000000B400021C1600160416081600162A7
:1006800041628162C162016341638163C16301664A
:1006900041668166C166016141618161C161016735
:1006A00041678167C167016441648164C164016518
:1006B00041658165C165704710B50A8802604A8846
:1006C00042608A888260CA880B898C891A444B8967
:1006D00023441A44CB891A44C2604A8A8B8A1A443A
:1006E000CB8A098A03EB01111144016510BD002179
:1006F000018041808180C180018141818181C181EE
:10070000018241828182C1827047C268002902D081
:1007100042F0010101E022F00101C1607047016077
:1007200070474160704781607047C36823F00203DF
:100730001A44C26081607047006880B27047C26826
:1007400022F470621144C1607047C26822F0300226
:100750001144C1607047C26822F0C0021144C160F8
:100760007047C26822F008021144C160704710B59A
:10077000046D24F0FE04114401EB031121440165D2
:1007800010BD026D22F0F00202EB0111016570470D
:10079000026D22F00C02114401657047026D22F0D7
:1007A0000202114401657047026D22F001021144FA
:1007B00001657047C068000701D400207047082019
:1007C0007047C068400701D400207047012070477F
:1007D00010B54A88CB884C891A440B8923441A44A3
:1007E0008B8902EB8312CB891A440B8A1A448B88BB
:1007F000002B01D002F500520B8800EB83031A6234
:10080000488ACA8A1044898A01B1001D186610BD41
:100810000021018041808180C180018141818181ED
:10082000C181018241828182C182704700EB8100D7
:100830000261704700EB81000267704710B500EB62
:1008400081000146046E24F0080423440366084630
:10085000026110BD10B500EB81000146046E24F06A
:100860000804234403660846026710BD00EB8100BC
:10087000006980B2704700EB8100006F80B2704762
:1008800000EB810020300168002A02D041F4807121
:1008900001E021F480710160704700EB8100016A82
:1008A00021F4005111440162704700EB8100016A9C
:1008B00021F4805111440162704700EB8100016A0C
:1008C00021F4606111440162704700EB8100016A0C
:1008D00021F0C00101EB82110162704700EB810041
:1008E000016A21F0300111440162704700EB810080
:1008F000016A21F00F0111440162704700EB810091
:10090000006A400401D4002070470120704700EBCA
:100910008100016E21F0030111440166704700EB74
:10092000810060300168002A02D041F0040101E03A
:1009300021F004010160704710B5CA884B880C890A
:1009400002EB03128B889B0003EB04331A444B89A0
:1009500002EB83228B8902EB03220B8800EB8300DE
:1009600002630A8A4B8AC9891A4402EB0121016495
:1009700010BD002141808180C18001814181818140
:10098000C18101824182704710B5029C00EB810059
:10099000016B21F01F01240104EB82021A4411446F
:1009A000016310BD00EB8100016B21F00C0101EB34
:1009B00082010163704700EB8100016B21F00301AC
:1009C00011440163704700EB8100016B21F01001BD
:1009D00001EB02110163704710B5029C00EB81002E
:1009E000016B21F4F851240304EB822202EB032271
:1009F0001144016310BD00EB8100016B21F44061E3
:100A000001EB82210163704700EB8100016B21F44F
:100A1000407101EB02210163704700EB8100016B23
:100A200021F4805101EB02310163704710B5029C43
:100A300003EB0222224400EB8100026410BD406DF2
:100A40007047406D084201D1002070470120704777
:100A5000426D8A4342657047C36D002A01D00B4343
:100A600000E08B43C3657047836D002A01D00B43C0
:100A700000E08B4383657047426D806D02400A4001
:100A8000002A01D0012070470020704710B5104B9C
:100A90005A6A104CA04205D122F0FF00084340F0F2
:100AA000807212E00C4CA04206D122F47F4040EA52
:100AB000012040F0007208E0084CA04205D122F469
:100AC0007F0040EA014040F080625A6210BD0000A1
:100AD000000002400000074000800740000008407E
:100AE0003C48002181600161012282610160416016
:100AF000704738498A6803799B0602D542F0200284
:100B000001E022F020028A6000680860000A486064
:100B10007047002141600121016070472D4A9168B2
:100B2000002802D041F0800001E021F080009060B8
:100B30007047284A9168002802D041F0400001E047
:100B400021F040009060704722480069C00701D042
:100B500001207047002070471E48816941F0010163
:100B6000816170471B4A20F00100084350619020CA
:100B70009061704717494861102088617047154897
:100B8000402181617047134940F02000886170471F
:100B90001048C068C0B270470E488169006941EAD8
:100BA0000020C14340EA0140704700B50246FFF70C
:100BB000F3FF824301D0002000BD012000BD00B53D
:100BC0000246FFF7E9FF104201D0012000BD0020DE
:100BD00000BD000000000540D148002101604160D7
:100BE0008160C160016141618269C26901624162E3
:100BF0008162C16270478268016803791144C268EA
:100C000002EB03721144026911444269008B1144E2
:100C100001EB4050C349C24A13688B43184410602B
:100C200070470021016041608160C16001614161E4
:100C300081617047BA4A116821F0F07101EB4050B0
:100C40001060704730B5B6490A68B64BDB1C1A40D5
:100C5000D0E900342344D0E9024504EB05142344D1
:100C600044692344C4692344446A234490F82840D7
:100C700003EB446313444A6822F40032048C02EB11
:100C800044420B604A60028B0A61428B8A600069B1
:100C9000886230BD30B5A2494A68A34B1A40D0E9FA
:100CA00000342344D0E9024504EB0514234444698D
:100CB0002344C4692344048C03EB8443446A2344DF
:100CC00090F8284003EB44631A444A60028B4A615F
:100CD000428BCA600069C86230BD0021016041607A
:100CE0008160C1600161416101834183C161016231
:100CF0004162816270478A4A1168002802D041F03F
:100D0000010001E021F0010010607047844A516841
:100D1000002802D041F0010001E021F00100506004
:100D200070477F4A116821F4F87101EB00101060E0
:100D300070477B4A516821F4F87101EB0010506054
:100D400070477749886270477549C8627047744B2D
:100D50001A6822F402720844104418607047704BFD
:100D60005A6822F4027208441044586070476C4A72
:100D7000116821F00801084410607047684A516802
:100D800021F00801084450607047654A116821F459
:100D90000071084410607047614A516821F4007185
:100DA00008445060704710B55D4B1C6824F48064A3
:100DB00022441A601861996010BD10B5584B5C68E8
:100DC00024F4806422445A605861D96010BD5449AB
:100DD00008617047524948617047514988607047BF
:100DE0004F49C86070474E48016841F002010160F8
:100DF00070474B48416841F00201416070474848E4
:100E0000806970474648C06970474548016A406A32
:100E100001EB004070474248006A70474048406A12
:100E2000704700B50246FFF7F0FF104201D10020E5
:100E300000BD012000BD3A49096A014201D10020EC
:100E40007047012070473649496A014201D10020AC
:100E50007047012070473248016A21F001010162A8
:100E600070472F48416A21F00101416270472C48C8
:100E7000016A21F00201016270472948416A21F0AC
:100E800002014162704770B5254E336A756A84006D
:100E90008004020C002904D042EA030045EA144110
:100EA00003E023EA020025EA14413062716270BD5A
:100EB0001B4B1A6A002902D042EA800001E022EAB4
:100EC000800018627047164B5A6A002902D042EA25
:100ED000800001E022EA80005862704700B50246B7
:100EE000FFF793FF02EA9001014009B1012000BD24
:100EF000002000BD0A49096A00EA91000840002864
:100F000001D001207047002070470549496A00EA76
:100F100091000840002801D0012070470020704750
:100F2000008008400000FFF10300FBF10021016395
:100F3000C16241609022826101624162816202224B
:100F40004263816381644FF440710163704770B5FF
:100F500086B004460D4601A800F08DFB01986B4950
:100F6000896A6B4B01229C4205D101F007018A403E
:100F7000B0FBF2F007E0674B9C4204D1C1F30221C1
:100F80008A40B0FBF2F02A689108B0FBF1F39909AE
:100F900003F03F03800003EB8116B0FBF6F0801AEC
:100FA000C001B0FBF2F0022802D9002006B070BDEB
:100FB0006162A362E06AA988EA886B8911432A8981
:100FC0001A4311430143E162206B4FF6807188435D
:100FD000A989014321630120E8E74FF4165101601C
:100FE00000218180C180018141814FF44071818164
:100FF0007047002904D0016B41F001010163704783
:10100000016B4FF6FE72114001637047002A03D056
:10101000826B0A4382637047826B8A4382637047A4
:10102000C06B814301D00020704701207047006CE5
:10103000084201D00120704700207047426C0A43EB
:101040004264704742EAC10141637047002A03D0FD
:10105000826C0A4382647047826CC94389B20A4039
:1010600082647047C1F3080101607047006880B274
:101070007047002904D0C16A41F00101C162704784
:10108000C16A4FF6FE721143C162704730B585B038
:1010900004460D46042D08D1684600F0ECFA00988D
:1010A0004FF4E111B0FBF1F02062206B2843206384
:1010B00005B030BD002904D0016B41F0020101638D
:1010C0007047016B4FF6FD721143016370478069F1
:1010D000084201D0012070470020704710B50B4B2B
:1010E0009A6A0B4CA04205D142F0807020F0FF02BA
:1010F0000A4308E0074CA04205D142F0007020F4FA
:101100007F4040EA01229A6210BD000000000240C8
:10111000000003400080034010B583680268B3F10B
:10112000406F26D08469641E9B0E9C4022440A6056
:101130004269042A1FD0C268B2F1404F1FD08369B0
:101140005B1E920F934042681A444A60D0E9032321
:101150001A43446A836823431A43036A1A43C369E0
:101160001A43836940695B1E42EA031202438A60A4
:1011700010BD0A60DCE742680C324A60E6E742686C
:101180004A60E3E770480021416081604161491E87
:10119000C1614162C1624163C1630121C1647047A1
:1011A000002905D06849C96801EB00111046B3E772
:1011B000664901EB00111046AEE701EB0011104645
:1011C000AAE770B58AB005460C465F4E5F48B0602E
:1011D00021680091F16801EB051101914FF0006168
:1011E0000291090103914FF00851049104210591E6
:1011F0006168890006914FF400410791A168089148
:10120000E168099100EB05116846FFF785FF0120B1
:101210007060607D0122AA40012809D0F2617262EB
:10122000B2627263207D012804D0F2630AB070BDFF
:10123000B261F4E7B263F9E770B506460C46424D79
:101240004249A9602068002803D001EB0611FFF78E
:1012500063FF606820B1E96801EB0611FFF75CFFEE
:1012600001206860607B0122B24001280AD0EA6157
:101270006A62AA62A07B38B12A63207B012805D06C
:10128000EA6370BDAA61F3E76A63F6E7AA6370BD1B
:101290000021016041608160017341738173704777
:1012A0000021016041608160C1600161017541758B
:1012B0007047012282402448012901D0C262704750
:1012C00082627047012181401F48416170471E4979
:1012D0000120C86470471C4A002907D0D16801EB7F
:1012E00000100089C0F30910401C7047916801EBA1
:1012F0000010F6E701228240134BD2B2092920D216
:10130000DFE801F01F05090D101316191C001868FD
:1013100000F001007047D86C00F001007047986A37
:1013200010407047186A10407047186910407047A5
:10133000986910407047186B10407047986B1040C8
:101340007047002070470000008002400008002025
:10135000FE4A002903D0D1690143D1617047D169A8
:101360008143D1617047F94AD16821F4407101434A
:10137000D1607047C0F34211012909D0F449C96B0B
:1013800000F01F0201209040084204D00120704765
:10139000EE490968F4E70020704708B50020009086
:1013A0004FF4C0631720FFF7E5FF0099491C009137
:1013B0000099994201D20028F4D01720FFF7DAFFF4
:1013C00008B1012008BD002008BDE249086070474F
:1013D00000B50120FFF7F9FFFFF7DFFF0020FFF75F
:1013E000C2FFDA48C1680021C1604268416082687A
:1013F0008160026901614269416182698161D64906
:10140000C16100BD00B5FFF7E3FF0121C806FFF78A
:101410009FFFCF48C16B41F48101C163C16B01F4EF
:101420008101C16300BDC9498A6822F003028A6054
:10143000012806D0022803D1886840F003008860A4
:101440007047886840F001008860704708B5002048
:1014500000904FF4C0632220FFF78CFF0099491CD5
:1014600000910099994201D20028F4D02220FFF780
:1014700081FF08B1012008BD002008BDB449CA6B36
:1014800022F00302CA63012806D0022803D1C86BE8
:1014900040F00300C8637047C86B40F00100C863A8
:1014A000704708B5002000904FF4C0630D20FFF78F
:1014B00061FF0099491C00910099994201D20028CE
:1014C000F4D00D20FFF756FF08B1012008BD002021
:1014D00008BD9F4AD16B21F07C5141EA0060D06386
:1014E00070479C491C3908607047994AD16B21F4B8
:1014F000F81141EA0040D063704708B50020009021
:101500004FF4C0631520FFF735FF0099491C009187
:101510000099994201D20028F4D01520FFF72AFF44
:1015200008B1012008BD002008BD884AD36823F017
:1015300003030343D360506820F4706040EA012045
:1015400050608648D0F88810002904D0012140F866
:101550008C1F0021016070478149086070477F49F6
:1015600088310860704708B5002000904FF4C063D0
:101570002120FFF7FFFE0099491C00910099994234
:1015800001D20028F4D02120FFF7F4FE08B1012099
:1015900008BD002008BD6D4AD16821F0F00141EA84
:1015A0000010D0607047694A136923F003030343B6
:1015B0001361506820F0F00040EA01105060674865
:1015C000D0F88010002904D0012140F8841F0021A8
:1015D0000160704762498031086070475F4980311F
:1015E0000860704708B5002000904FF4C0632020C9
:1015F000FFF7C0FE0099491C00910099994201D261
:101600000028F4D02020FFF7B5FE08B1012008BD66
:10161000002008BD52499831086070475049883110
:1016200008607047494A516921F033010143516113
:101630007047464A516921F4706141EA00205061C7
:101640007047484908607047404A916921F0F001AD
:1016500041EA00109061704742497031086070475C
:101660003A4A916921F00F010143916170473D4968
:101670006C31086070472DE9F04FDFF8E0B0DBF81F
:101680008411DFF8E4A000294FEA4A0501D0514651
:1016900000E02946DBF8802102B149080B46DBF85F
:1016A0008821DFF8A8C02AB1DCF80420C2F30322A5
:1016B000521C5343DCF80C204FF40048C2F30122C3
:1016C00049F64049012752B1012A0AD0022A1AD00C
:1016D000C0F80090DBF80422C2B1524617E0056062
:1016E000F8E7DCF80C201209120701D41A4608E0CA
:1016F000DCF80C20C2F30212521C07FA02F2B3FB10
:10170000F2F20260E6E7C0F80080E3E72A46DBF881
:10171000004204B152081446DBF808622EB1DCF82E
:101720000460C6F30316761C74432646DBF810B239
:10173000BBF1000F00D076084660DCF8186036096F
:101740005FEA067B18D506F0070B0FE000000240A9
:1017500000800D40D807B043100000080000404250
:1017600088014042B402404200093D000BF1010BE8
:1017700007FA0BF6B5FBF6F5C560DCF818605FEA12
:10178000067B07D506F0070B0BF1010B07FA0BF6EA
:10179000BAFBF6FAC0F810A0DCF8146016F00306E5
:1017A00004D0012E1AD0022E1AD02146DCF81420C3
:1017B000C2F30112B2B1012A16D0022A00D0294682
:1017C000DCF81420120A130705D502F00702521C98
:1017D0009740B1FBF7F18160BDE8F08F1146E5E776
:1017E0001946E3E74146EBE74946E9E7FEF72CFDFA
:1017F000FEE720384FF08073C36181612749416162
:1018000040F8202970474FF0E0204FF6FF1141616A
:1018100007210161704710B52148016841F47F013B
:101820000160016841F07F410160FFF7ECFF1D4955
:1018300000200860FEF7E0FC002010BD704718494A
:101840004FF080501C390860BFF34F8FBFF36F8F8C
:10185000704710B5FEF7F8FC12480168491C01609A
:10186000BFF34F8FBFF36F8F10BD0E490868401E46
:101870000860002801D1FEF7EEBC704710B5FEF7F6
:10188000E3FC00F0FFFB20B105494FF080501C390C
:101890000860BDE810400020FEF7DDBCED17000831
:1018A00020ED00E00400002000F1080141604FF04D
:1018B000FF328260C1600161002101607047002138
:1018C0000161704742684A6093688B609368596011
:1018D000916008610168491C0160704730B50C686F
:1018E000621C02D000F1080202E0026904E01A461C
:1018F00053681D68A542FAD953684B6099608A60A5
:10190000516008610168491C016030BDD0E90121C6
:101910009160D0E90112516001694A68824201D1A7
:1019200082684A60002202610868401E08607047B1
:1019300070B504460D46FFF78CFFD4E90F122068FE
:1019400001FB020060600020A0632068A060E06BE3
:10195000226C2168401E00FB0210E0604FF0FF3057
:101960006064A06404F110004DB1FFF79DFF04F125
:101970002400FFF799FFFFF778FF012070BD216970
:101980000029F8D000F03FFE0128F4D1FFF757FFFF
:10199000F1E72DE9F04105460F460026002D16D04F
:1019A0004C2001F0D0F804468CB105FB07F0401C38
:1019B00001F0C9F8206038B1E563276401212046B1
:1019C000FFF7B6FF264602E0204601F002F9304656
:1019D000BDE8F08170B50446FFF73BFF04F1240534
:1019E0000AE0606A58B1284600F00DFE08B100F028
:1019F0006BFEA06C401EA064A06C0028F1DC4FF0D0
:101A0000FF35A564FFF731FFFFF723FF04F1100650
:101A10000AE0206958B1304600F0F5FD08B100F049
:101A200053FE606C401E6064606C0028F1DC6564ED
:101A3000BDE87040FFF719BF10B50446FFF709FF76
:101A4000A06BE16B884201D1012400E00024FFF784
:101A50000CFF204610BD70B504461546226C002AC6
:101A600010D0BDB1E0680CF0AEFBE168206C091A43
:101A7000E1602268914202D26168081AE060022D9A
:101A800015D019E02068B8B9606800F05FFE00204A
:101A9000606011E0A0680CF096FB216CA06808441F
:101AA000A0606168884207D32068A06004E0A06B52
:101AB00010B1A06B401EA063A06B401CA06370BD62
:101AC0002DE9FF4182B0044688461F4600250026C6
:101AD000FFF7BFFEA06BE16B884205D3022F03D056
:101AE0000498A8B1C5B11BE03A4641462046FFF72D
:101AF000B2FF606A38B104F1240000F084FD0128CF
:101B000001D1FFF79CFEFFF7B0FE012006B05FE7B2
:101B1000FFF7ABFE0020F9E7684600F0A0FD0125C5
:101B2000FFF7A3FE00F074FBFFF793FE606C401C10
:101B300000D16664A06C401C00D1A664FFF795FE3E
:101B400004A9684600F091FD30B12046FFF742FF3E
:101B500000F0F9FA0020D9E72046FFF76DFF70B1D9
:101B600004F11000049900F024FD2046FFF732FF35
:101B700000F0E9FA0028ABD1FFF761FEA8E72046A4
:101B8000FFF728FF00F0DFFAA2E710B54C2000F0C5
:101B9000DAFF0446CCB1002060602060A060E06005
:101BA000A0630121E1632064401E6064A06404F12D
:101BB0001000FFF779FE04F12400FFF775FE002303
:101BC0001A4619462046FFF77BFF204610BD10B588
:101BD0000446FFF73EFE206820B10024FFF745FED3
:101BE000204610BD6468F9E72DE9F04104460F4630
:101BF00015461E46FEF728FB8046A06BE16B884227
:101C000007D3022E05D000244046FEF724FB2046D1
:101C1000DEE6324639462046FFF71DFFA06C401C29
:101C200004D0A06C401CA0640124EDE7606A002889
:101C3000FAD004F1240000F0E6FC0028F4D0002DD6
:101C4000F2D001202860EFE710B50446FFF701FE4F
:101C5000A06B20B10024FFF708FE204610BD012430
:101C6000F9E730B40C460368002B0CD0026CC16855
:101C70001144C1604568A94200D3C360C1682046D1
:101C800030BC0CF0A0BA30BC70472DE9FF4182B0E7
:101C9000044688461F4600250026FFF7DAFDA06BA4
:101CA00038B3E56841462046FFF7DBFF6FB1E560DA
:101CB000606A30B104F1240000F0A5FC08B1FFF720
:101CC000BEFDFFF7D2FD012020E7A06B401EA06300
:101CD000206810B900F0FCFC606020690028F0D09A
:101CE00004F1100000F08FFC0128EAD1FFF7A7FDF6
:101CF000E7E7049808B125B107E0FFF7B6FD00203B
:101D000004E7684600F0ABFC0125FFF7AEFD00F0EC
:101D10007FFAFFF79EFD606C401C00D16664A06CEA
:101D2000401C00D1A664FFF7A0FD04A9684600F09E
:101D30009CFC30B12046FFF74DFE00F004FA002075
:101D4000E4E62046FFF780FFB8B1206830B9FFF71E
:101D500080FD606800F0CBFCFFF787FD04F12400F4
:101D6000049900F026FC2046FFF734FE00F0EBF962
:101D7000002892D1FFF763FD8FE72046FFF72AFE88
:101D800000F0E1F989E72DE9F04104460F461546D8
:101D9000FEF75AFA0646A06BE0B139462046FFF737
:101DA00060FFA06B401EA063606C401C04D0606CA0
:101DB000401C606401240EE020690028FAD004F180
:101DC000100000F020FC0028F4D0002DF2D00120FB
:101DD0002860EFE700243046FEF73DFA2046F7E59D
:101DE0002DE9F04104460F46FEF72EFA0646A06B99
:101DF00038B1E56839462046FFF733FFE560012436
:101E000000E000243046FEF726FA2046E0E510B553
:101E10000446FFF71EFDA46BFFF727FD204610BD0B
:101E200010B50446FFF715FDD4E90E10441AFFF76C
:101E30001CFD204610BD806B704710B5044620681D
:101E400000F0C7FE2046BDE8104000F0C2BE806B27
:101E5000002801D00020704701207047816BC06BC3
:101E6000814201D1012070470020704770B50446BF
:101E70000D46FFF7EEFC626C4FF00000521C00D1E3
:101E80006064A26C521C00D1A064FFF7EEFCA06B52
:101E900020B9294604F1240000F0A5FB2046BDE846
:101EA000704097E570B50024FD4D04EB840005EB10
:101EB0008000FFF7F9FC641C052CF6D3F848643069
:101EC000FFF7F2FCF6487830FFF7EEFCF4488C3070
:101ED000FFF7EAFCF248A030FFF7E6FCF048B43028
:101EE000FFF7E2FCEE49EF486431016314314163CE
:101EF00070BD70B5044615460023E218C85C82F830
:101F00003400C85C10B15B1C102BF6D3002084F8A1
:101F10004300052D00D30425E5626564201DFFF70D
:101F2000CEFC04F11800FFF7CAFC2461C5F10500DE
:101F3000A061646270BD70B506460D46482000F091
:101F400002FE044644B1B60045B12846206348B1BC
:101F5000A52231460CF0AEF9204670BD304600F0A7
:101F6000F2FDF3E7204600F034FE0024F4E72DE90B
:101F7000FF4F81B08246DDE90E68109917469B46F7
:101F80003846FFF7D8FF0446C64DE4B3216B781EF0
:101F900001EB800020F00709009732462046119B94
:101FA0000299FFF7A6FF5A4651464846FFF721FC23
:101FB0002060B8F1000F01D0C8F80040FFF749FCDD
:101FC000A868401CA860286810B1686938B10BE0A7
:101FD0002C60A868012807D1FFF764FF04E0286897
:101FE000C06AB04200D82C60A86A401CA862E06AAF
:101FF0002969884200D92861A94900EB800001EBDA
:102000008000211D00E005E0FFF75CFC0124FFF7E4
:102010002CFC01E04FF0FF34012C07D1686928B196
:102020002868C06AB04201D2FFF709FC05B020461B
:10203000BDE8F08F70B50446FFF70BFC994D04B96D
:102040002C68201DFFF762FCA06A18B104F118008B
:10205000FFF75CFC9248211DA030FFF733FC686855
:10206000401C6860A86A401CA862FFF7FEFB686914
:10207000002806D02868844203D1BDE87040FFF7ED
:10208000DEBB70BD2DE9F0470025864FB8690028FA
:1020900008D0F869401CF861386A00B1012528466B
:1020A000BDE8F087F868401CF860FE684FF0FF3923
:1020B00076B9386B796B39637863786A401C7862DB
:1020C000386B0068A0B1386BC068C0684068F862BF
:1020D000F86ADFF8CC8186420FD3386B006850B1C4
:1020E000386BC068C4686068864210D2F86204E049
:1020F000C7F82C90ECE7C7F82C903868C06A00EB62
:10210000800058F820000128C6D90125C4E7201D09
:10211000FFF7FCFBA06A18B104F11800FFF7F6FB0B
:10212000E06A3969884200D9386100EB800008EB29
:102130008000211DFFF7C6FBE06A3968C96A884242
:10214000CBD30125C9E72DE9F0410027FFF781FB3B
:10215000544DA869401EA861A869D8BBA868C8B337
:10216000DFF83C81012608F18C081CE0D8F80C004F
:10217000C46804F11800FFF7C9FB201DFFF7C6FB78
:10218000E06A2969884200D9286100EB800144484F
:1021900000EB8100211DFFF795FBE06A2968C96A01
:1021A000884200D32E62D8F800000028DED1E8690A
:1021B00038B909E0FFF766FF00B12E62E869401EFA
:1021C000E861E8690028F5D1286A012802D10127D1
:1021D000FFF735FBFFF749FB3846BDE8F08170B5E6
:1021E0000446304D28684460E868844206D2296875
:1021F000686B091DBDE87040FFF770BB2968286B4C
:10220000091DFFF76BFBE86A844200D2EC6270BDE7
:1022100024488169491C8161704770B505460C46A8
:102220000022FFF7F5FF1F4EF0682B681C44834225
:1022300005D9A34208D9844206D9012204E0A34269
:1022400001D8844200D901222C6032B13068001DCF
:10225000FFF75CFB2046FFF7C2FFFFF774FF002883
:1022600003D1BDE87040FFF7EABA70BD10B5024671
:102270000020002A0DD0FFF7CBFF0A48C1688C1858
:102280000068001DFFF742FB2046FFF7A8FFFFF79D
:102290005AFF002803D1BDE81040FFF7D0BA10BDA7
:1022A000000C00200800002010B50446FFF7D1FA0A
:1022B0000CB9F7480468E46AFFF7D7FA2046EEE75E
:1022C0002DE9F04104460D460026052D00D30425D6
:1022D000FFF7BFFAEE4F04B93C68606CA84231D0FA
:1022E000854208D939688C4209D03968C96AA9423F
:1022F00005D8012603E039688C4200D10126E16A45
:10230000884200D1E5626564C5F10500A061E14D38
:1023100001EB8101606905EB810188420ED1201D2E
:10232000FFF7F4FAE06A3969884200D9386100EBB6
:10233000800005EB8000211DFFF7C4FA012E01D1BA
:10234000FFF77DFABDE8F041FFF78FBAD049886901
:10235000002802D001200862704700200862CD4AA0
:1023600002E00869401E0861086900EB800052F82D
:1023700020000028F5D0086900EB800002EB800007
:1023800042685268426000F108039A4201D15268E3
:1023900042604068C0680860704770B50446FFF747
:1023A00058FABB4D04B92C68201DFFF7AFFAA06A9C
:1023B00018B104F11800FFF7A9FAB648211DB4308E
:1023C000FFF780FAFFF751FA286884420DD1686957
:1023D00018B1BDE87040FFF732BAAE48A968B43012
:1023E0000068884202D10020286070BDBDE87040BE
:1023F000ACE70021A74B4269B4339A4206D1806A08
:10240000A3F12802904201D000B90121084670478B
:1024100070B50446002C25D09D4D2868844221D0FB
:10242000FFF717FA2046FFF7E4FF012816D1201D19
:10243000FFF76CFAE06A2969884200D9286195495A
:1024400000EB800001EB8000211DFFF73BFAE06A02
:102450002968C96A884201D3FFF7F1F9BDE87040E5
:10246000FFF703BA70BD2DE9F04104460025FDF7E2
:10247000EBFE07462046FFF7BCFF012808D1844E3B
:10248000B06950B1834804F118018C30FFF71AFA93
:102490003846FDF7E0FE28469FE6E06A3168C96AE3
:1024A000884200D30125201DFFF730FAE06A316928
:1024B000884200D93061774900EB800001EB800051
:1024C000211DFFF7FFF9E3E710B50446206B00F08C
:1024D00080FB2046BDE8104000F07BBB70B56D4E20
:1024E0006B4DA0361CE0FFF793FE306820B100244E
:1024F000FFF729FEA4B901E00124F9E7FFF7A9F9E4
:10250000F068C468201DFFF701FAA868401EA860A3
:102510006868401E6860FFF7A8F92046FFF7D4FFFF
:1025200068680028DFD170BD5A4CFFF7D7FF2068DC
:102530000128FAD9FFF783F9F7E71FB500240094C3
:10254000019402942346802253A155480394FFF737
:102550000EFD012801D100F064FA012809D1FDF730
:1025600073FE4B4801214161C460BDE81F40FFF785
:1025700052B91FBD10B5FDF767FE454900204861FF
:10258000BDE81040FFF75AB910B5FFF762F94048AF
:10259000C468FFF76AF9204681E610B5FDF754FEDE
:1025A0003B49CC68FDF757FE204678E638488068FE
:1025B000704770B50D46364C21681831FFF78EF91B
:1025C0002068001DFFF7A2F9681C04D0E0682844C9
:1025D000BDE8704003E62168BDE870402D48091D44
:1025E000B430FFF76FB970B50D46294C216818312A
:1025F000FFF768F92068001DFFF788F9E0682844B4
:10260000BDE87040EBE570B5C068C46804F118001F
:102610000646FFF77BF91E4DAA696AB11D4831468F
:102620008C30FFF74FF9E06A2968C96A884214D3F1
:1026300001200121296270BD201DFFF767F9E06AC2
:102640002969884200D92861124900EB800001EB1A
:102650008000211DFFF736F9E5E7002070BD0C4929
:102660004A6A0260C9684160704770B504460D4609
:10267000FFF7EFF80649C8682A68531C12D0236890
:10268000496A8B4210D0616881420DD8012417E05D
:1026900008000020000C002049444C4500000000C8
:1026A0002925000800240BE06168401A904206D2F8
:1026B000101A28602046FFF7D2FF002400E0012412
:1026C000FFF7D3F8204670BD3149012008627047FA
:1026D0002F48006870472E484169002903D080695F
:1026E00018B102207047002070470120704770B574
:1026F0000446002829D0264DE06A2968C96A884224
:1027000023D22868C06AC0F10500A061E06A214EAA
:1027100000EB8000616906EB8000814212D1201D30
:10272000FFF7F4F82868C06AE0622969884200D996
:10273000286100EB800006EB8000211DBDE87040A1
:10274000FFF7C0B82868C06AE06270BD10B50446E3
:1027500000281BD0616CE06A884217D0201DFFF76B
:10276000D5F8606CE062C0F10500A0610849E06A3C
:102770000A69904200D90861064900EB800001EB2C
:102780008000211DBDE81040FFF79CB887E50000E0
:1027900008000020000C002070B50024416000619A
:1027A000C34D91420AD8D11A8269914201D30124C2
:1027B0000EE0011DE868FFF791F809E09A4203D2A4
:1027C000994201D3012403E0011DA868FFF786F8B0
:1027D000204670BDFEB59446089F06461A46002066
:1027E000B34D2C68002C09D00091CDF804C002969E
:1027F0002AB1002369462046FFF7F6F9FEBDFFF730
:102800006AFF012806D000231A4669462868FFF7A8
:1028100057F9FEBD00233A4669462868FFF750F98C
:10282000FEBDF8B5A24E1EE0C0680568C468201D54
:10283000FFF76CF8616A20468847E069012812D1E9
:10284000A0692844A84206D960602461211DB068AF
:10285000FFF744F807E000200346014600902A46AF
:102860002046FFF7B7FFB06801680029DCD1B068E7
:10287000F168B160F060F8BD70B50546FFF784FE01
:1028800004468B4E7068844204D2FFF7CAFF0120D1
:10289000286001E0002028607460204670BD30B5DB
:1028A00085B0834D37E0049C606910B1201DFFF7AF
:1028B0002DF801A8FFF7E0FF0246029830B1012889
:1028C00029D002281CD0032825D121E00398A16932
:1028D000034601442046FFF75FFF01281BD1616AD0
:1028E00020468847E069012815D100200090039810
:1028F000A1690023421819462046FFF76BFF0AE042
:102900000398A061811813462046FFF745FF02E0B7
:10291000204600F05EF900231A4602A92868FFF756
:10292000B4F90028BFD105B030BDF8B505460E4654
:102930005F488068C068C468201DFEF7E7FFE06953
:10294000012810D1A0692B46411932462046FFF7D5
:1029500023FF012807D100200346014600902A46A4
:102960002046FFF737FF616A01B02046BDE8F0401E
:102970000847F8B505460E46FFF74AFC6846FFF7DC
:102980007BFF0446009810B1FFF7DDFBF8BD46B9A8
:10299000A54206D8FFF7D7FB21462846FFF7C5FF1B
:1029A000F8BD4348291B0068FFF760FAFFF7CBFB2F
:1029B0000028F5D1FEF743FFF8BD3D498A6811684C
:1029C000002904D00021016019B1002070470121C5
:1029D000F9E7D0680068704708B56846FFF7EDFF73
:1029E0000099FFF7C6FFFFF75AFFF6E710B5FEF7AD
:1029F00030FF2F4C206880B92E48FEF755FF2D4838
:102A00001430FEF751FF2B48A0601430E060002224
:102A10000C210A20FEF7BDFF2060BDE81040FEF744
:102A200024BF1FB50024FFF7E1FF2148006860B113
:102A300000200321CDE9001002900346039080227C
:102A40001DA11F48FFF793FA044604B0204610BDAD
:102A50002DE9F0470646DDF820900D4617469846CA
:102A6000002D13D0282000F06EF804465CB1FFF76B
:102A7000BDFF2660A561E761C4F82080C4F82490FA
:102A8000201DFEF71CFF2046BDE8F0870024FAE772
:102A900010B50446FEF7DDFE606908B1012400E0D0
:102AA0000024FEF7E2FE204610BD006A70470000D9
:102AB00040000020C80C0020546D72205376630043
:102AC000D929000830B5544900E011460A6882420D
:102AD000FBD34B685C18844203D1406818444860BB
:102AE00008460D6844682318AB420DD14A4B0C3B95
:102AF0001B689A4206D05268224442600A681268F3
:102B0000026002E0036000E00260814200D00860E1
:102B100030BD424820F007013F4801600023436078
:102B200044F2F830084408383B4A0C3A10604360DD
:102B3000036044F2F0334B6008605068083850601E
:102B4000D806906070472DE9F04105460026FFF752
:102B50005FFB314F0C3F386808B9FFF7DAFFB86800
:102B6000054231D13DB10835680704D005F00700B2
:102B7000C0F1080005443DB37868854224D8264951
:102B80000846046801E0214604466068A84202D273
:102B900020680028F7D13868844215D00E680836BE
:102BA000206808606068411B102904D960194160E1
:102BB0006560FFF787FF60687968091A7960B9680E
:102BC0000843606000202060FFF7BDFA3046BDE892
:102BD000F08170B5002819D0083804460E4D6068A1
:102BE0000C3DA968084211D02268002A0ED1884302
:102BF0006060FFF70DFB6068696808446860204604
:102C0000FFF760FFBDE87040FFF79DBA70BD024856
:102C10000C384068704770475C000020F80C0020BA
:102C20001FB502F068FF02F09AFF02F04BF803F0C4
:102C30004BF903F06FF903F0BFF902F0ECFF03F07A
:102C400076F903F0EFF803F0F8F800F016FA02F066
:102C50005EFD04F0E4FC49490125E8030024086016
:102C600000F0B6FD502003F09BFA552003F09BFACC
:102C7000434804604460CDE900540294002380225C
:102C800040A142480394FFF772F94148CDE901049D
:102C90000226002380223FA1414800960394FFF7BB
:102CA00066F9009401940294002380223DA13F48DC
:102CB0000394FFF75CF90320CDE90004029400239C
:102CC00080223BA13D480394FFF751F9CDE9005420
:102CD0000294002380223AA13C480394FFF747F96D
:102CE000CDE9006402940023802239A1394803947D
:102CF000FFF73DF9CDE9005401231E02029432464C
:102D000035A138480394FFF732F9CDE90054029415
:102D10000123324634A137480394FFF728F9CDE95F
:102D2000005402940223324633A12E480394FFF745
:102D30001EF9CDE9005402940223324631A12D48F8
:102D40000394FFF714F9CDE9005402940023802284
:102D50002FA133480394FFF70AF9009401940294D9
:102D6000002380222FA133480394FFF700F903F0DA
:102D70009DFA03F0D0FAFFF7E0FBFEE700E100E088
:102D8000E400002047554920746F7000894D000809
:102D900088000020436F6E766572746572000000D3
:102DA000674100085365727669636500BD58000885
:102DB0004469737061746368657200001D450008A2
:102DC000627574746F6E7320746F7000CD64000848
:102DD000414443004B2E0008554152543120525873
:102DE00000000000176C000855415254312054581F
:102DF00000000000936E0008554152543220525892
:102E00000000000055415254322054580000000088
:102E1000536F756E642064726976657200000000FD
:102E2000A3590008454550524F4D2064726976659C
:102E3000720000005576000869488088704768482D
:102E4000C08870476648C068704708B500220421F2
:102E50000520FEF79EFD624C206180B10322002117
:102E60000120FEF796FD606120B100231A46194645
:102E7000FEF726FE606918B14FF0FF3537E0FEE738
:102E8000FEE70320207000232A4619466069FEF7FA
:102E9000FCFE2089800800EB800081B2A18060895F
:102EA0008008E0804F4AD2F8D020526E127F52073D
:102EB00007D500EB80004FF6FF7202EA4000E08089
:102EC00002E000EB8000E080E08841434FF47A703C
:102ED00091FBF0F0E06044480D2101700521417044
:102EE0000146424800231A460068FEF7E9FD002328
:102EF0002A4669462069FEF7C8FE00980128F6D1E7
:102F0000BFE770B5364C00222146607801250426C3
:102F1000C978032838D005DC50B101280ED002282A
:102F200004D12AE0102840D0112845D0627070BD2D
:102F30002078A0700028FAD0657070BDA07800F0ED
:102F40000501012908D081070DD520F00200A070ED
:102F500010206070628170BD20F00500A07002201A
:102F60006070228170BD627022706069BDE870403F
:102F700000231A461946FEF737BE0420FDF7D1FE9E
:102F8000E6700320607070BD042904D2FDF737FF9E
:102F9000218908442081E07828B1FDF724FFE078FA
:102FA000401EE07070BD657070BD0720FDF7B9FE72
:102FB000E6701120607070BD042904D2FDF71FFF78
:102FC000618908446081FDF70EFFE07828B1FDF7C4
:102FD0000AFFE078401EE07070BD657070BD0000B3
:102FE000640000203C510020F05000209C00002094
:102FF00070B50024514D686820F0C00068600F2053
:1030000001F079FE06464E480068810600D410247F
:10301000400701D444F480742868C10701D144F00A
:103020000104810701D444F00204410701D444F0B3
:103030000404C10601D444F00804800601D444F01D
:103040002004304601F05CFE0028FAD12868696847
:1030500041F0C0016960010601D444F0400440061B
:1030600001D444F080043748448070BD36480021C4
:1030700041808180C180018170470020324A002157
:103080000A3222F81010401CC0B20928F9D3EDE72B
:103090002DE9F041FEF7DDFBFFF7AAFFFEF7E5FBA8
:1030A00028484588017839B1002101702A0601D4E9
:1030B000417001E00F21417040788543FFF7D6FF52
:1030C0000021214C01274FF6FF7C04F10A0607FA84
:1030D00001F082B236F811000CEA4000154201D02E
:1030E00040F0010000F00303012B04D0022B06D0B6
:1030F000032B19D111E063881343638014E0A38884
:103100001343A380C0F38803A3F58078B8F1FF08C8
:103110000AD0E3881343E38006E0C0F38803FF2B63
:1031200002D123891343238126F81100491CC9B217
:103130000929CCD32580BDE8F081000000000B40B8
:1031400000800A407C000020005100201E480068DA
:1031500040F30000401C70471C48006840F380208A
:10316000401C70471A4A012803D004211046FDF77D
:103170005BBA04211046FDF74CBA15480068C0F34D
:1031800080007047124A012803D008211046FDF73D
:103190004BBA08211046FDF73CBA0B4A012803D070
:1031A00002211046FDF740BA02211046FDF731BA60
:1031B000084A012803D040211046FDF735BA4021C6
:1031C0001046FDF726BA000000800A4000000B40C0
:1031D00000800E4000800C40FE4890F8FC00012862
:1031E00001D00020704701207047012804D0F94821
:1031F0006830808880B27047F648FAE7012804D02A
:10320000F4486830808980B27047F248FAE70128B4
:1032100004D0F0486830008980B27047ED48FAE782
:10322000012805D0EB48683021B1406980B2704771
:10323000E848F9E70069F9E7012807D0E548683070
:1032400031B190F82000C0F340007047E148F7E743
:1032500090F8200000F001007047012806D0DD48FA
:10326000683029B14430008880B27047D948F8E707
:103270002430F8E7012806D0D648683029B1443018
:10328000008980B27047D348F8E72430F8E7012876
:1032900006D0D048683029B14430808880B2704769
:1032A000CC48F8E72430F8E7012807D0C94868304F
:1032B00031B1443032B1006980B27047C548F7E798
:1032C0002430F7E7C068F7E7012808D0C148683024
:1032D00039B144303AB1007FC0F340007047BD4877
:1032E000F6E72430F6E7007F00F001007047B948A8
:1032F00090F8FD0000F001007047B64890F8FD001E
:10330000C0F340007047B348B0F8FE007047012892
:1033100006D0B0486830406E007FC0F38000704730
:10332000AC48F8E7AB48D0F8D000007800F00100D6
:103330007047A948006890F904007047A649002822
:10334000096802D091F90600704791F905007047AD
:1033500010B502460020147FE30704D0D3688B42E7
:1033600001DB19460220A30705D513698B4202DC55
:10337000194640F0010053688B4202DB194640F0C9
:10338000080093688B4202DC194640F00400136881
:103390008B4202D0116040F0100010BD30B5002407
:1033A0004569954201DB2A4608248569954202DC7D
:1033B0002A4644F00404057F71B10169914203D1AA
:1033C000C5F34001994205D0026163F341050577D9
:1033D00044F01004204630BDC168914203D105F08D
:1033E00001019942F6D0C26063F30005057744F00D
:1033F0001004EFE7012803D076486830001D7047BD
:103400007448FBE7012804D07248683019B1443091
:1034100070477048FAE724307047012803D06D48A0
:103420006830001D94E76B48FBE7012803D069482A
:103430006830001DB2E76748FBE7012805D0654802
:10344000683021B14430114682E76248F9E7243000
:10345000F9E730B414461A46029B012806D05D48AD
:10346000683029B14430214630BC97E75948F8E725
:103470002430F8E730B50546022A02DA0222082095
:1034800007E04FF4FA70824202DD0246042000E0B9
:103490001020504BFD331C7865F3000461F34104A8
:1034A0001C70A3F8012030BD012807D0002805D0EA
:1034B0004848D0F8D000007800F00100704700289C
:1034C00008D0012806D04348D0F8D000406E007FD5
:1034D000C0F38000704741483E490068091D0288DA
:1034E0000A604288CA6082880A6183790A7F63F32E
:1034F00000020A77C37963F341020A77028A0A62FB
:10350000428ACA62828A0A63837D91F83C2063F30F
:10351000000281F83C20C37D63F3410281F83C2026
:10352000028B0A64428BCA64828B0A65837F91F89E
:103530005C2063F3000281F85C20C37F63F34102E7
:1035400081F85C20091F90F82020002A58D001F152
:1035500044026C3141F8082C02890A604289CA6031
:1035600082890A61837B0A7F63F300020A77C37B47
:1035700063F341020A77428C0A62828CCA62C28C6F
:103580000A6390F8283091F83C2063F3000281F838
:103590003C2090F8293063F3410281F83C20428DB1
:1035A0000A64828DCA64C28D0A6590F8303091F841
:1035B0005C2063F3000281F85C2090F8313063F303
:1035C000410281F85C206C3990F83220D2B1014A76
:1035D000AC3205E03C5100203C02002040020020BB
:1035E000DE3141F8122C10F8343FCA7F63F3000239
:1035F000CA77437863F34102CA77408808847047EA
:10360000F94AA6E7F84A6832E3E700B50120FFF778
:10361000ECFDF64B1968088000210120FFF700FE41
:103620001968488001210846FFF7FAFD196888806B
:1036300000210120FFF700FE19688871012108466A
:10364000FFF7FAFD1968C87100210120FFF705FE98
:1036500019680882002211460120FFF725FE19682B
:103660004882012200211046FFF71EFE1968888259
:10367000002211460120FFF727FE196888750122F4
:1036800000211046FFF720FE1968C8750121084681
:10369000FFF7E3FD19680883012100220846FFF7C0
:1036A00003FE19684883012211461046FFF7FCFD0E
:1036B00019688883012100220846FFF705FE196872
:1036C0008877012211461046FFF7FEFD1968C8777A
:1036D0000120FFF71CFE196881F820000020FFF789
:1036E00084FD1968088100210846FFF799FD1968D3
:1036F000488101210020FFF793FD1968888100218E
:103700000846FFF799FD1968887301210020FFF72B
:1037100093FD1968C87300210846FFF79EFD1968DC
:103720004884002211461046FFF7BEFD19688884C0
:10373000002101220846FFF7B7FD1968C88400225E
:1037400011461046FFF7C0FD196881F828000021D6
:1037500001220846FFF7B8FD196881F82900012108
:103760000020FFF77AFD19684885002201211046E4
:10377000FFF79AFD19688885012211460020FFF79E
:1037800093FD1968C885002201211046FFF79CFDB2
:10379000196881F83000012211460020FFF794FDDE
:1037A000196881F831000020FFF7B1FD196881F830
:1037B0003200FFF79CFD196881F83400FFF79DFD8A
:1037C000196881F83500FFF79EFD1968C88600BDAD
:1037D00070B585484FF4807124380AF095FD824C0D
:1037E000303414F8540C40F0010020F0020004F8CA
:1037F000540C002544F84C5C42F2107044F8480C1C
:1038000044F83C5C44F8380C14F8140C20F0040024
:1038100004F8140C44F82C5C44F6206044F8280C9E
:1038200044F81C5C44F8180C217B41F0040121731E
:1038300044F80C5C410044F8081C6560A160217DDF
:1038400021F0010121F002012175E5612062E562AC
:10385000206394F8541021F0040184F85410E563B7
:103860002064E564206594F8741041F0040184F844
:103870007410E5652066E566206794F8A90040F0BD
:10388000010020F0020084F8A9000A20A4F8AA0090
:10389000554820616830A0672438E067543C00F048
:1038A00024FD00F0DAFC0028FBD054F8D00F00789B
:1038B00000F00100FFF766FC2068406E007FC0F357
:1038C0008000FFF76AFC2068808880B200F084FCEA
:1038D0002068406E017F0088C1F3800180B200F053
:1038E00091FC20680078C0F34000FFF761FC84F889
:1038F000285070BD05230B7004234B70002802D0A4
:103900008078087100E00B714A7100208871C871DD
:10391000704730B4344B0524343B1C7004245C7075
:10392000002802D08078187100E01C7100205871C6
:103930009A71D9712E4800232B49006830BC1A4671
:103940003439FEF7BDB84068002805D00023006870
:103950001A461946FEF7B4B8704770472DE9F0478C
:1039600000250627204EA846243E4FF0010996F870
:10397000FC40D6F8D01008280DD2DFE800F02C75F6
:10398000520C040491AC012C07D0032C0FD0022C54
:1039900001D186F8FC80BDE8F08700F0A6FC86F82F
:1039A000FC80BDE8F047012200210846B1E700F0A5
:1039B0009CFCD6F8D0000078C0F34000FFF7F8FB7D
:1039C00086F8FC800320FFF7C8FFBDE8F04705221A
:1039D000002108469DE76CB1022C0BD0BDE8F047F2
:1039E00001484438AFE70000605100204002002049
:1039F0009C0000200878C0F34000FFF7D9FB00F0DE
:103A00005DFC102809D00125FE48FFF79CFF3A46CF
:103A10002946BDE8F047FB487BE786F8FC90002785
:103A2000F2E7032C03D00878C00709D00225F54837
:103A3000FFF789FF3A462946BDE8F047F14868E7B5
:103A4000012C04D000F03AFC102800D00125002DF4
:103A5000EDD10020FFF7ACFB0220FFF77EFF032033
:103A600086F8FC000327E2E700F03FFC86F8FC80C4
:103A7000032C10D0D6F8D0000078C0F34000FFF738
:103A800097FB0124DF48FFF75EFF22462946BDE889
:103A9000F047DC483DE70320FFF75FFF0524F1E72F
:103AA000022086F8FC0000F02DFC102802D000F067
:103AB0001CFC0125022229460020FFF72AFF032CC7
:103AC0007FF469AF0320FFF748FFBDE8F047052208
:103AD000002108461DE7CC48C0F804900023011DD2
:103AE000CA481A460068BDE8F047FDF7E9BF10B5BF
:103AF000C4484078002807D001283BD1FFF785FD56
:103B0000BDE81040BF481EE70520FFF727FFFDF77F
:103B1000A0FEFFF7E0FCFDF7A8FE02E00120FEF7A3
:103B2000A5FB00F09AFB0028F8D0B64C2034D4F85E
:103B3000D000406E007FC0F3800000F0AAFB102888
:103B400014D154F8D00F808880B200F045FB206873
:103B5000406E017F0088C1F3800180B200F052FB0B
:103B600020680078C0F34000FFF722FBBDE810405A
:103B7000A448E8E610BD2DE9F84F002700260025EF
:103B8000DFF88082DFF888B2404698F8011008F12B
:103B9000200A007A0AF1680408F110090A297CD287
:103BA000DFE801F07BFDFC054193FB7BFAF9FFF7B1
:103BB0007BFC88F80800FDF74CFE98F80800D8F860
:103BC0000C10FFF72AFC0446FDF74FFEE0060CD56B
:103BD000DAF8D01098F808000A7802F00102904252
:103BE00003D1888880B200F0F7FA8648FFF7ABFE71
:103BF0008449032210318348FFF77CFE98F80810AF
:103C000099F8080061F3000089F8080089F8064077
:103C1000DBF8000001B00023BDE8F04F79491A46F7
:103C20001031FDF74DBFFFF73FFC88F8080098F80A
:103C30000900FFF744FC88F80900FDF70AFE98F830
:103C4000091098F80800D8F80C20FFF7F6FB044696
:103C5000FDF70BFEE00614D5DAF8D01098F808004E
:103C60000A7802F0010290420BD14A6E98F80900DE
:103C7000117FC1F38001884203D1108880B200F027
:103C8000C1FA6048FFF75FFE5E49042210315D48CB
:103C9000FFF730FE98F8081000E0E2E099F808001D
:103CA00061F3000098F8091061F3410089F80800F9
:103CB00089F80640DBF8000001B00023BDE8F04FB2
:103CC00050491A461031FDF7FBBEFFF7EDFB88F8AF
:103CD0000800FDF7BEFD98F80A3098F8091098F82A
:103CE0000800D8F80C20FFF7A0FB0446E00609D531
:103CF00098F80800FFF77EFB016898F80800FFF7C6
:103D00008CFB0546FDF7B1FDE8060CD5DAF8D000CE
:103D100098F80810027802F00102914203D18088DD
:103D200080B200F059FA3748FFF70DFE35490522F9
:103D300010313448FFF7DEFD98F8081099F80800B4
:103D400061F3000098F8091061F3820089F8080017
:103D500089F806402B4900231A461031DBF8000091
:103D6000FDF7AEFEE8067CD526490322103100207F
:103D7000FFF7C0FD98F8081099F8080061F30000FB
:103D800089F8080045F0200089F8060000231D4945
:103D90001A46103104E0AEE18AE108E00CE19AE055
:103DA000DBF8000001B0BDE8F04FFDF789BEFFF77A
:103DB0007BFB88F8080098F80900FFF780FB88F87B
:103DC0000900FDF746FD98F80B00009098F80A20CE
:103DD00098F8091098F80800D8F80C30FFF739FB6C
:103DE0000446E0060DD598F8091098F80800FFF78A
:103DF00009FB026898F8091098F80800FFF71DFB06
:103E0000054607E01C5100208000002074000020BF
:103E10009C000020FDF729FDE80614D5DAF8D00053
:103E200098F80810027802F0010291420BD1406E1E
:103E300098F80920017FC1F380018A4203D10088EC
:103E400080B200F0DFF9E148FFF77DFDDF4906228F
:103E50001031DE48FFF74EFD98F8081099F8080079
:103E600000E08FE061F3000098F8091061F3410071
:103E700098F80A1061F3820089F8080089F8064072
:103E8000D24900231A461031DBF80000FDF718FE76
:103E9000E80677D5CD49042210310020FFF72AFD2E
:103EA00098F8081099F8080061F3000098F80910D4
:103EB00061F3410089F8080045F0200089F8060008
:103EC000DBF8000001B00023BDE8F04FBF491A46FF
:103ED0001031FDF7F5BDFFF7E7FA88F80800DAF8CA
:103EE000D010097801F0010188424CD00420FFF77E
:103EF00035FD02E00120FEF7B9F900F0AEF9002827
:103F0000F8D098F8080000F0ADF9102801D001278A
:103F10003AE0FDF79EFC98F80800012801D1AB4C6F
:103F20002034CAF8D040FDF7A0FC02E00120FEF7E3
:103F30009DF900F092F90028F8D0DAF8D000406E30
:103F4000007FC0F3800000F0A4F91026102801D0F3
:103F5000012719E0DAF8D000808880B200F03CF93F
:103F6000DAF8D000406E017F0088C1F3800180B292
:103F700000F048F9DAF8D0000078C0F34000FFF70D
:103F800017F901E0EDE00F269048FFF7DCFC8F49C0
:103F9000012210318D48FFF7ADFC89F8066089F8E1
:103FA0000770DBF8000001B00023BDE8F04F87493F
:103FB0001A461031FDF784BDFFF776FA88F808003D
:103FC00098F80900FFF77BFA88F8090098F80810BC
:103FD000012901D17D4C2034626E127FC2F3800230
:103FE000904244D0DAF8D000007800F0010081421D
:103FF0002ED19AF8FC00012828D0032803D125E00F
:104000000120FEF733F900F028F90028F8D098F8DD
:10401000090000F03EF9102801D0012728E0FDF743
:1040200018FC98F8090070B104F144006066FDF7CF
:104030001CFC606E017F0088C1F3800180B200F03B
:10404000E1F8102614E004F12400EFE702270FE066
:10405000FDF7FFFB98F8090030B104F144006066F9
:10406000FDF703FC102603E004F12400F7E70F2618
:104070005648FFF768FC5549022210315348FFF7B4
:1040800039FC98F8081099F8080061F3000089F8E5
:10409000080089F8066089F80770DBF8000001B0B5
:1040A0000023BDE8F04F49491A461031FDF708BD1D
:1040B000FDF7CFFB98F8091098F80800D8F80C2005
:1040C000FFF7D8F90446FDF7D0FB4048FFF73BFC6B
:1040D0003E49082210313D48FFF70CFC89F80640A4
:1040E000DBF8000001B00023BDE8F04F37491A4665
:1040F0001031FDF7E5BCFDF7ACFB354898F808102A
:104100000068017198F80910417198F80A108171DE
:10411000FDF7ABFBDAF8D000808880B200F05CF8E5
:10412000DAF8D000406E017F0088C1F3800180B2D0
:1041300000F068F82548FFF706FC244909221031F1
:104140002248FFF7D7FB102089F80600DBF80000B3
:1041500001B00023BDE8F04F1C491A461031FDF7AD
:10416000AFBCBDE8F88F002210210520FDF711FC3F
:10417000184D2860A0B10021FDF7DAFB134C4FF079
:10418000FF360023324611492868FDF77EFD20786E
:104190000528F6D2DFE800F011050E031500F0E760
:1041A000FEE7607810B1FFF7E6FCEAE7207AFFF758
:1041B000D5FBE6E7FFF79BFCE3E70720FFF7CEFB25
:1041C000DFE70620FFF7CAFBDBE700001C510020F9
:1041D0003C020020800000200521B0FBF1F0C54A20
:1041E000126892F9042092FBF1F10844002801DAE8
:1041F000002004E0B0F5805F01DB40F6FF7080B284
:1042000001F0C8BF30B4BB4A4FF480556C1E136830
:1042100001290BD00521B0FBF1F093F9052092FBA9
:10422000F1F10A18002A11DA002212E00A21B0FB8B
:10423000F1F093F9062092FBF1F10A18002A01DA55
:10424000002206E0AA4204DB224602E0AA4200DB8A
:10425000224690B230BC01F0A0BFA748007800F021
:104260001000704710B5A44C2178C90701D0132065
:1042700010BD2178C90601D4112010BD72B6FEF719
:1042800081FF62B60820607060780028FCD11020A1
:1042900010BD10B5984C2178C90701D0132010BD6E
:1042A0002178C90601D4112010BDFEF776FF082041
:1042B000607060780028FCD1102010BD8E48017815
:1042C000C90701D0102070470178490701D5122095
:1042D00070470178C90601D411207047012141704F
:1042E00041780029FCD11020704783480178890764
:1042F00001D5102070470221417041780029FCD17E
:10430000102070477C480178C90701D01120704700
:104310000421417041780029FCD1102070472DE91B
:10432000F8434FF00008CDF80080FEF715FF724DFE
:1043300080B9287880060DD47048006850B10123F8
:104340006A466F49FDF750FC012803D1287840F0F8
:104350002000287028784FF4FA7710F02A0F01D047
:10436000AF8003E0A88808B1401EA880A88848B1A3
:104370000024644E54B1E88808B1401EE880012C46
:1043800009D016E0FEF7E2FE0446F2E7B6F8FE00BA
:104390004008E880F3E7A88958B996F8FD0080073F
:1043A00007D55A480123002257490068FDF71CFC35
:1043B000AF814FF04B09012C16D1E888A0B996F8CF
:1043C000FD00C00710D0287820F001002870287860
:1043D00040F006002870A5F808904E4801230022FE
:1043E0004B490068FDF700FC6878400703D5287842
:1043F00020F004002870687880070DD528788007A1
:104400000AD4287820F001002870287840F00200B3
:104410002870A5F8089010E06878C0070DD02878BB
:10442000C0070AD12878400707D4287820F0020076
:104430002870287840F0010028706878000701D5BE
:10444000322028816878C00600D56F81A878C0071F
:1044500004D0287840F00800287006E0A87880078B
:1044600003D5287820F00800287085F8018085F8A9
:10447000028085F80380287810F02A0F03D00020EE
:10448000FEF770FE05E02878C00702D00120FEF795
:1044900069FE0020297801F02101012902D16989F2
:1044A00001B90120012C03D096F8FC10022901D19A
:1044B00040F0020001F0E0F9288930B1401E288167
:1044C000287820F01000287003E0287840F01000D1
:1044D0002870688908B1401E6881A88908B1401E0B
:1044E000A8810098002803D00B494FF08050086045
:1044F000BDE8F8833C0200208C0000209C000020D6
:104500000CFD00083C51002028FD0008C8000020D8
:10451000ECFC00088000002004ED00E092B00024D4
:10452000002210210A20FDF734FAFE4D28600028F1
:104530007ED0032200210120FDF72BFA686020B114
:1045400000231A461946FDF7BBFA6868002870D0A8
:10455000032200210120FDF71CFAA86020B10023EE
:104560001A461946FDF7ACFAA86800287ED0002349
:104570001A461946EB4DFDF788FB3220FDF776FE13
:1045800005208DF80C0000270497E74E00231A46FB
:1045900003A93068FDF794FAE448077007A9816021
:1045A00005F1080AC0F804A00146E1484FF0FF39C0
:1045B00000234A460068FDF783FA00234A4619465D
:1045C000A868FDF762FB042008909DF81C000028F5
:1045D0007ED000200990D74D00231A4608A92868EC
:1045E000FDF76EFA4FF002088DF828808DF82970DB
:1045F00000200B90D0484FF0FF3900234A460AA90B
:104600000068FDF75DFA03208DF80C00002004908F
:10461000C54E00231A4603A93068FDF751FA7D20E4
:10462000FDF724FE0320089000231A4608A901E0A4
:1046300060E060E028460068FDF742FA4FF0060BA4
:10464000CDF820B08DF824809DF81C0000F00C00FF
:104650008DF825009DF83C008DF8260028460023A3
:104660004A4608A90068FDF72BFA00E044E0DFF8AD
:10467000CC82CDF81880DFF8C89200231A4606A92C
:10468000D9F80000FDF71CFA8DF80CB000231A468B
:1046900003A93068FDF714FAA44901201431087009
:1046A000A84800231A460068FDF70AFAA6489F4961
:1046B00000231A4614310068FDF702FA99499B4815
:1046C000091D41604FF0FF3B00235A460EA900E050
:1046D00013E0944E3068FDF7D8FA9DF83800401F7B
:1046E0000928EFD2DFE800F0F22A8A41CD050BF06D
:1046F000EF00E7E7FEE7FEE7FEE701206AE78B4809
:104700002030017821F07F01091D01709DF83900EA
:1047100001280AD00228D5D18C48844900231A46A2
:1047200020310068FDF7CCF9CCE789487F490023A8
:104730001A4620310068FDF7C3F9C3E7002CC1D148
:10474000012400231A4619467068FDF79EFA77483F
:10475000032101709DF83C1001720146744800234A
:104760001A460068FDF7ACF9ACE79DF83D00E0B1F2
:104770007848069000231A4606A9D9F80000FDF7EC
:104780009FF9062008908DF824709DF83D008DF863
:1047900025009DF83C008DF8260000235A4608A904
:1047A0002868FDF78DF900248CE702208DF8280099
:1047B0008DF82970CDF82CA05F4800235A460AA92D
:1047C0000068FDF77DF900235A461946B068FDF7E9
:1047D0005CFA03208DF80C00CDF810A0524800239D
:1047E0001A4603A90068FDF76BF900235A461946DB
:1047F000B068FDF74AFACDF81880BBE7002C93D1DA
:10480000012400231A4619467068FDF73EFA02F0AB
:10481000FFFE02208DF8280001208DF82900CDF838
:104820002CA0454800231A460AA90068FDF748F95C
:1048300000235A1E1946B068FDF727FA4FF0040B03
:104840008DF80CB0CDF810A0374800231A4603A904
:104850000068FDF735F900235A1E1946B068FDF7C8
:1048600014FA324880F800B09DF83C10017210999B
:10487000C16001462E4800231A460068FDF720F962
:1048800020E79DF83D00D8B13249069106210891F4
:1048900001218DF824108DF825009DF83C008DF83D
:1048A000260000235A4608A92868FDF709F90023C5
:1048B0001A4606A9D9F80000FDF702F9002401E71D
:1048C000CDF81880E2E7C0E0E0E0FFE79DF83D00AA
:1048D00028B19DF83E10C90601D5012200E0002252
:1048E00028B99DF83E10062901D0012100E00021E1
:1048F00011439DF83C20032A38D091B1052108913D
:104900008DF824009DF83E008DF825009DF84000AC
:104910009DF8261060F30001420862F3410180080F
:104920001AE023E09C000020F40000203C5200200C
:1049300044020020B400002080000020320001006A
:10494000C80000203C01002040010020300200206F
:104950002C0200203200020060F382018DF8261044
:1049600000231A4608A92868FDF7AAF89DF83D100B
:1049700029B19DF83E00C00601D5012200E00022C9
:1049800029B99DF83E00062801D0012000E0002052
:10499000104330B3A648027822F07F02921C22F026
:1049A0008002027001719DF8401001F00102427115
:1049B000C1F3400181719DF83C00012806D09D485B
:1049C00000231A469A490068FDF77AF89DF83C00E2
:1049D000022806D0984800231A4695490068FDF73A
:1049E0006FF89DF83C0001283FF483AE0228FBD00D
:1049F00006979DF83D0080B19DF83E0000F02F0124
:104A00000F2904D0C0F30110012803D012E08B4815
:104A100006900FE0CDF818800CE09DF83F0018B12B
:104A20008648801C069005E09DF83E00022801D1D2
:104A30008348069006980028D6D000231A4606A977
:104A4000D9F80000FDF73CF83CE608200890002368
:104A50001A4608A92868FDF733F87548017821F04F
:104A60007F01891C21F0800101700721017101463D
:104A7000704800231A460068FDF722F86E480023AC
:104A80001A466B490068FDF71BF81BE634B16D4808
:104A900000235A1E19464068FDF7F7F802F0B8FDEA
:104AA00002208DF8280001258DF82950CDF82CA082
:104AB000654800231A460AA90068FDF701F800239B
:104AC000604C5E1E32461946A068FDF7DEF80420F1
:104AD0008DF80C00CDF810A05C4800231A4603A9FD
:104AE0000068FCF7EDFF002332461946A068FDF789
:104AF000CCF800231A4619466068FDF7C6F84C4802
:104B00002038057002A9816001A9C16001465048A2
:104B1000002332460068FCF7D3FF002332461946D3
:104B20006068FDF7B2F872B641F2883000F0E3F841
:104B30000446002001F034FB002001F02BFB002094
:104B400001F02BFB002008F028F8002008F006F800
:104B5000404808F04FF90022012311463EA008F01A
:104B60001DFA0123002260213EA008F017FA01235C
:104B7000222260213EA008F011FA3F4808F03AF9DD
:104B80009DF80800E0B301230C2279213BA008F036
:104B900005FA9DF80400A0B3112841D001232E226C
:104BA000792136A008F0FAF9374800F0FEFD2046DA
:104BB00000F0A6F80028FAD1FEF7E4FA0020FEF78C
:104BC000ECFA0020FEF7F4FA304800F094F80446BE
:104BD000204600F095F80028FAD12D48FBF738FC64
:104BE0002C48FBF735FC2C48FBF732FC2B48FBF735
:104BF0002FFC2B48FBF72CFC2A48FBF729FCFEE78F
:104C000000E006E001230C22792127A008F0C6F974
:104C1000BFE701232E22792123A008F0BFF9C3E7C3
:104C200001232E22792123A008F0B8F9BCE7000067
:104C30005C5200202C0200203002002032000200D2
:104C4000340003009C00002080000020F4000020BD
:104C5000440200206C220108506F776572204F4695
:104C60004600000053657474696E677300000000AD
:104C700050726F66696C6500941301084E4F5420A2
:104C80007361766564000000A866002040420F0052
:104C900000800A4000000B4000800B4000000C40E8
:104CA00000800C4000800E407361766564204F4B9D
:104CB000000000006E6F7420726571757269656422
:104CC0000000000011480168C9070AD1016841F0DD
:104CD000807101600E4800214160016841F00101CE
:104CE000016070470A4840687047081A70470849D1
:104CF0004968081A70470649496801EB4010704737
:104D000003494968081AC00F70470000FCED00E035
:104D1000001000E01A4908788006000E0870194A51
:104D20001368DB0502D540F00100087010688005AB
:104D300003D5087840F002000870087800F00F00F2
:104D40000F280CD2DFE800F00B0C080B080B0B0C43
:104D50000C0B0B080B080C004888401E488070475D
:104D60004888401C4880704705498A88488820F058
:104D700003008880801A00B28010C880704700004D
:104D8000A800002000000B401FB5002208210A20C7
:104D9000FCF7FFFDF84C6060E0B303220021012026
:104DA000FCF7F7FDA06020B100231A461946FCF776
:104DB00087FEA06878B300231A461946FCF765FF02
:104DC000032200210120FCF7E4FDE06020B1002374
:104DD0001A461946FCF774FEE068E8B100231A464B
:104DE0001946FCF752FFE54803214170E2490831BA
:104DF000416003F062F8E24806F0EDF84FF0FF354D
:104E000000232A4602A96068FCF73FFF02980E289B
:104E1000F6D202E00BE00BE00BE0DFE800F0213619
:104E20003E0B29438C07860707070789E8E7FEE75B
:104E3000FEE7FEE703F0DEFC05F07BFA05F08DFAF5
:104E400005F0BBFA05F0CDFA05F0A5FAF0208DF8D3
:104E500000006946CA4806F004F806F04AF8CFE7B1
:104E600006F02FFA06F0FAF8C64800F09EFCC7E7F5
:104E7000F1208DF8000003988DF801006946C048C4
:104E800005F0EFFF06F035F8BAE7BDF80C00C1B247
:104E9000BDF80E0006F0F4F9B2E7BDF90C0006F01B
:104EA000FFF9ADE79DF80C000928A9D2DFE800F072
:104EB000053730060D1622053A00A1E79DF80E00D1
:104EC00000F0010003F04DFC9AE79DF80E00C0F3DE
:104ED000400100F0010003F056FC91E79DF80E0040
:104EE000410701D4012100E0022100F0010003F09C
:104EF000DCFF85E79DF80E00410701D4012200E0A8
:104F00000222C0F3400100F0010003F09AFF77E7AE
:104F10009DF80E0000F0010003F04BFC70E703F079
:104F200069FC6DE705F005FA6AE703F0C5FC67E781
:104F300003F0D5FC64E79DF80C0020B101283ED0B9
:104F4000022878D15DE09DF80D0060B108282FD0CF
:104F50001E2300220321022005F07FFD9DF80E0094
:104F600005F00BFA67E000221E231146104605F0FB
:104F700074FD8548007AC0060AD48449844805F047
:104F800070FF8449804805F06CFF7F4806F08FFA77
:104F900003F030FC0321102003F087FF10210322CF
:104FA000084603F04EFF05F0C4F905F006FA42E0AA
:104FB00002211E230022084605F04FFDCEE79DF892
:104FC0000D0060B1082815D01E2300220321022005
:104FD00005F043FD9DF80E0005F0CFF92BE000220F
:104FE0001E230121104605F038FD9DF80E0005F046
:104FF000C4F920E002211E230022084605F02DFD01
:10500000E8E702F019FB80B19DF80D0030B11E23D6
:1050100000220421012005F020FD0CE000221E23C7
:105020000521104605F019FD05E000221E2304218C
:10503000104605F012FD00202070E1E64F4A0123E2
:105040001C3A1370507003209070012902D0002088
:105050005060704748480C305060704770B5044647
:105060000D4601210220FFF7E9FF44481C38047275
:1050700045720146484800235D1E2A460068FCF739
:105080001FFD3D4800232A461946C068FCF7FDFD78
:105090002046BDE8704003F08CBB70B504460D4659
:1050A00001210320FFF7CAFF34481C380472C56091
:1050B0000146394800235D1E2A460068FCF700FDC2
:1050C0002D4800232A461946C068FCF7DEFD20461D
:1050D000BDE8704003F045BB70B504460D4616466A
:1050E00001210420FFF7AAFF244B1C3B1C725D72B8
:1050F000DE602948002321495E1E32461C390068C3
:10510000FCF7DEFC1C48002332461946C068FCF759
:10511000BCFD29462046BDE8704003F034BB2DE9B4
:10512000F04106460D461746984601210520FFF737
:1051300085FF124C1C3C26726572A772C4F80C8065
:10514000154800230D495C1E22461C390068FCF7F7
:10515000B7FC0948002322461946C068FCF795FDB4
:1051600045B10221304603F0A0FE3046BDE8F041D3
:1051700003F0F7BA0121F5E7B000002094520020B7
:10518000D4530020A86600200C540020DAFE00084A
:105190000C560020E0FE0008800000202DE9F047BA
:1051A0000646DDF820900F46154698460121062058
:1051B000FFF744FF7D4C26726772A57284F80B805E
:1051C000C4F80C907A4800235C1E22467749006898
:1051D000FCF776FC7748002322461946C068FCF7A6
:1051E00054FD55B102223946304603F02AFE3946B5
:1051F0003046BDE8F04703F0C6BA0122F3E770B5C8
:1052000004460D46164601210820FFF717FF674B9D
:105210001C725D72DE60664800235C1E2246634994
:105220000068FCF74DFC6348002322461946C0681D
:10523000FCF72BFDBDE8704005F07BB870B5044667
:105240000E46154600210920FFF7F8FE574B1C7249
:105250005E729D72564800235A1E0068BDE8704079
:105260005249FCF72DBC10B5504A05231C3213706F
:1052700010725172504800234C495C1E22461C316A
:105280000068FCF71DFC4B48002322461946806845
:10529000FCF7FBFCBDE8104005F05FB810B5454CCD
:1052A000217800290CD14149062210390A70087171
:1052B000424800231A460068FCF702FC01202070D7
:1052C00010BD10B53B4C2278002A0FD1374A072376
:1052D000103A1370107191603848344900231A460F
:1052E00010390068FCF7ECFB0120207010BD38B5C8
:1052F0002E4A02231C3213701072C2F80CD01161B6
:105300002D48002329495C1E22461C310068FCF709
:10531000D7FB28480023224619468068FCF7B5FCD5
:105320009DF8000038BD30B4204B022410331C70AF
:10533000187259729A72224800231C4900685A1E3A
:1053400030BC1031FCF7BCBB0EB502218DF800104B
:1053500041788DF8011081788DF80810416801912D
:1053600000784FF0FF32012806D016480023694626
:105370000068FCF7A5FB0EBD1348002369460068D2
:10538000FCF79EFB0EBD1CB50446FCF762FA2078C4
:10539000694601F0ABF9FCF768FA9DF8000060700F
:1053A0009DF80100A070019860601CBD785200203B
:1053B00080000020B0000020440200209C0000205B
:1053C000F4000020400100203C0100202DE9F047BE
:1053D00007460D461446002607F4E060C00940F079
:1053E000A0084FF080494846FBF7E9FB0128FAD1B5
:1053F00000214046FBF7B6FB4FF0007A5046FBF722
:10540000DEFB0128FAD14FF000494846FBF7D7FBF5
:10541000012805D00126FBF7B2FB3046BDE8F08736
:10542000F8B2FBF7A7FB57463846FBF7C8FB012845
:10543000FAD14846FBF7C3FB012801D00226EAE770
:1054400001214046FBF78EFB3846FBF7B8FB0128ED
:10545000FAD14846FBF7B3FB012812D00326DAE75E
:105460001CB10020FBF78FFB02E00820FBF78BFB51
:105470003846FBF7A4FB0128FAD1FBF789FB05F8B6
:10548000010B641EE4B2EBD2C5E710B54FF08044C7
:105490002046FBF794FB0128FAD10021A020FBF75E
:1054A00061FB4FF000742046FBF789FB0128FAD11D
:1054B000FBF765FB4FF00040FBF781FB012801D0B3
:1054C000002010BD012010BD2DE9F04106460F4619
:1054D0001546FFF7DAFF0028FBD012E006F00F00B8
:1054E000C0F11004AC4200D9ECB222463946304635
:1054F000FFF76CFF002807D1301986B2281B85B250
:105500002744002DEAD10020BDE8F0812DE9F047C5
:1055100080460D461446002608F4E060C00940F0BD
:10552000A0074FF080494846FBF749FB0128FAD114
:1055300000213846FBF716FB4FF000773846FBF7A3
:105540003EFB0128FAD14FF000494846FBF737FBF4
:10555000012804D00126FBF712FB30465EE708F075
:10556000FF00FBF707FB3846FBF729FB0128FAD1C0
:105570004846FBF724FB012801D00226EBE74FF455
:1055800000480DE02878FBF7F5FA6D1C3846FBF76C
:1055900016FB0128FAD14046FBF711FB012803D086
:1055A000641EE4B2EED2D6E70326D4E72DE9F0413B
:1055B00006460F461546FFF768FF0028FBD016E0A9
:1055C00006F00F00C0F11004AC4200D9ECB2224644
:1055D00039463046FFF79AFF002895D1301986B238
:1055E000281B85B22744FFF750FF0028FBD0002D71
:1055F000E6D1002088E7000070B50446012901D1FA
:1056000044F480749A4D02212846FAF7FCFE0128E2
:10561000F9D121462846BDE87040FAF7EFBE10B533
:10562000FFF769FB04462046FFF76AFB0028FAD122
:1056300010BD10B58F4A012807D004211046FAF793
:10564000F3FFBDE810401420E9E704211046FAF703
:10565000E0FFF6E770B50021E220FFF7CDFF002163
:105660003D20FFF7C9FF00210120FFF7C5FF002102
:10567000E120FFF7C1FF00210846FFF7BDFF002131
:105680002420FFF7B9FF00219020FFF7B5FF00218C
:10569000A020FFF7B1FF0021C820FFF7ADFF0021D8
:1056A000A620FFF7A9FF0021A420FFF7A5FF0021F6
:1056B0002F20FFF7A1FF00214020FFF79DFF0021D1
:1056C000F820FFF799FF0021D020FFF795FF002178
:1056D0003020FFF791FF0021B020FFF78DFF002160
:1056E0001020FFF789FF00210846FFF785FF0024FF
:1056F00040F25F3501210020FFF77EFF641CA4B259
:10570000AC42F7D3BDE870400021AF2074E770B51C
:10571000584C01212046FAF787FF4FF47A65284656
:10572000FFF77DFF01212046FAF773FF2846FFF7B8
:1057300076FF0120FFF77DFFFFF78CFF4C4C102117
:105740002046FAF760FE0028F9D10220FFF771FF2A
:10575000FFF780FF10212046FAF755FE0028F9D107
:1057600070BD70B50D46FFF764FF0021B020FFF754
:1057700043FF00211020FFF73FFF00210846FFF7FD
:105780003BFF00244FF4587615F814000121FFF771
:1057900033FF641CA4B2B442F6D3354C102120462A
:1057A000FAF731FE0028F9D170BD2DE9F047064621
:1057B00009270120FFF73DFF0021B020FFF71CFF64
:1057C00000211020FFF718FF00210846FFF714FF03
:1057D00060244FF0000811E00025641EA4B20121EE
:1057E000305DFFF709FF6D1CADB2602DF5D304F5F8
:1057F0009074A4B208F1010808F0FF08B845EBD393
:10580000DFF86C9010214846FAF7FDFD0028F9D129
:105810000220FFF70EFF0021B020FFF7EDFE002170
:105820001020FFF7E9FE00210846FFF7E5FEC0243F
:105830004FF0000811E00025641EA4B20121305D84
:10584000FFF7DAFE6D1CADB2602DF5D304F5907450
:10585000A4B208F1010808F0FF08B845EBD3102105
:105860004846FAF7D0FD0028F9D1BDE8F0870000DE
:1058700000000A4000800C4070B504460C4DE00763
:1058800004D080212846FAF7CFFE03E08021284685
:10589000FAF7BFFEA00705D52846BDE870404021B5
:1058A000FAF7C2BE2846BDE870404021FAF7B1BE03
:1058B00000000B402548B0F90000704708B5FCF720
:1058C00063FE00900220FBF734FA204C4FF4802551
:1058D000FA216846FCF7A1FC00270026FBF789FAAD
:1058E0000220FCF7C3FC2846FBF79BFA0028FAD0FD
:1058F000FBF788FA384487B2761C052EEED338467B
:1059000009F0ABFE124A134B09F0BAFE124A134BD0
:1059100009F0B6FE0022124B09F0C8FD09F06EFE38
:1059200000B22080192801DA322000E0400080B265
:1059300000F036FC0D2060600A48044900231A4636
:10594000091D0068FCF7BCF8C2E70000C000002099
:105950009A9999999999C93F21B0726891EDCCBFF4
:1059600000C06C40B4000020052800D30020474947
:1059700051F8200070474649421E8A60400848613D
:105980007047434A516B40F60C439943002803D0BB
:1059900040F60800014302E040F204400143516335
:1059A00070470EB5002001908046834600220421F6
:1059B0000A20FBF7EEFF3549091F086080BBFEE7B0
:1059C00088B2090C404554D98046019151E0D84530
:1059D00000D901244FF0000A062C40D2DFE804F081
:1059E0003F030C1A23370198FFF7BEFF81460224BC
:1059F000C3464FF0000839E0D9F80400009099F848
:105A000000700098384303D009F1080903242DE001
:105A100000242BE02FB17F1EBFB2009E042425E09E
:105A200027E0022422E03088758855EA000107D07B
:105A3000361D38B1FFF79FFF0120FFF7A2FF04E0FA
:105A4000032413E00020FFF79CFF05240EE025B19E
:105A50006D1EADB24FF0010A08E0042406E04FF0DD
:105A6000000B0020FFF78DFF4FF0010ABAF1000F85
:105A7000B2D006480023001F5A1E02A90068FCF796
:105A800004F9029911F5803FA1D099E7CC000020DC
:105A900000000740FB48FA498160212141607047BE
:105AA0002DE9F04107460D46F64E0124BC40F46254
:105AB0002868002804D0F24901EB0711FBF72CFB02
:105AC000686820B1F16801EB0711FBF725FB687BE3
:105AD00001280AD0F4617462A87B40B13463287B4A
